:020000040800F2
:10000000A0080020C9010008D1010008D3010008A0
:10001000D5010008D7010008D90100080000000040
:10002000000000000000000000000000DB010008EC
:10003000DD01000800000000DF010008DD140008F9
:10004000C11A000805130008E3010008C5130008E1
:10005000E3010008E3010008910E0008690F0008A1
:100060008D0F0008B10F0008D50F00081907000810
:10007000A107000845080008E90800088D090008E4
:10008000310A0008D50A000885020008E3010008CB
:10009000E3010008E3010008E3010008F90F00088C
:1000A000E301000889150008E30100080D150008A8
:1000B000A91500085D16000800000000E301000813
:1000C000E30100080000000000000000E513000844
:1000D00000000000F5160008D1170008000000001D
:1000E000B50E0008A11300089D1A000800F002F8E0
:1000F00000F05AF80AA090E8000C82448344AAF168
:100100000107DA4501D100F04FF8AFF2090EBAE865
:100110000F0013F0010F18BFFB1A43F0010318473B
:10012000941A0000B41A00000A444FF0000C10F8B2
:10013000013B13F0070408BF10F8014B1D1108BF65
:1001400010F8015B641E05D010F8016B641E01F805
:10015000016BF9D113F0080F1EBF10F8014BAD1C55
:100160000C1B09D16D1E58BF01F801CBFAD505E073
:1001700014F8016B01F8016B6D1EF9D59142D6D3CD
:10018000704700000023002400250026103A28BFF5
:1001900078C1FBD8520728BF30C148BF0B607047F9
:1001A0001FB51FBD10B510BD00F031F81146FFF7A7
:1001B000F7FF01F095FC00F04FF803B4FFF7F2FFF2
:1001C00003BC00F057F80000094880470948004781
:1001D000FEE7FEE7FEE7FEE7FEE7FEE7FEE7FEE7F7
:1001E000FEE7FEE704480549054A064B7047000054
:1001F00009150008ED000008A0020020A00800205A
:10020000A0040020A0040020704770477047754686
:1002100000F02CF8AE4605006946534620F0070072
:10022000854618B020B5FFF7DDFFBDE820404FF050
:1002300000064FF000074FF000084FF0000B21F0D0
:100240000701AC46ACE8C009ACE8C009ACE8C0099D
:10025000ACE8C0098D46704710B50446AFF3008086
:100260002046BDE81040FFF7A8BF000000487047D7
:100270004002002001491820ABBEFEE72600020024
:100280007047000010B52848006800F0010048B130
:100290002648006880472448006820F00100224971
:1002A000086040E020480068C0F34000D8B31E4812
:1002B0004C3000681E4909681E4A127821F8120065
:1002C0001C480078401C1B490870084600781A49F1
:1002D0000978884219D10120184908701248001D78
:1002E000006820F020001049091D086008460068D9
:1002F00020F400600860081D006820F00100091D5E
:1003000008600F480068804707E007480830006829
:1003100040F480000449083108600348006820F078
:1003200002000149086010BD0024014018010020AE
:10033000100100201D0100201E0100201C010020D2
:1003400014010020F0B5034614460125002208469A
:10035000CE1701EB16763611A1EB0616F1B2002C82
:100360007ED123B1012B2CD0022B7FD154E0082960
:1003700010DA8806020E86480668012090408643FF
:10038000834806600068561C0127B740B843804E7A
:10039000306015E0A1F10800C1B28806020E7C4869
:1003A000001D06680120904086437948001D0660C4
:1003B0000068561C0127B740B843754E361D3060A3
:1003C00056E0082911DA8806020E724800680126F4
:1003D0009640B0436F4E306030460068561C01278F
:1003E000B740B8436B4E306015E0A1F10800C1B2D0
:1003F0008806020E6748001D06680120904086436B
:100400006448001D06600068561C0127B740B843C9
:10041000604E361D30602BE0082910DA8806020E87
:100420005D4806680120904086435B48066000688E
:10043000561C0127B740B843574E306015E0A1F174
:100440000800C1B28806020E534846680120904059
:100450008643514846604068561C0127B74001E07A
:1004600007E003E0B8434C4E706001E0002500BF98
:100470008BE0012CFCD123B1012B2DD0022B7DD19F
:1004800056E0082910DA8806020E41480668012065
:10049000904006433E4806600068561C0127B7405E
:1004A000B8433B4E306016E0A1F10800C1B28806A7
:1004B000020E3748001D0068012696403043344E36
:1004C000361D306030460068561C0127B740B843DF
:1004D0002F4E361D306057E0082911DA8806020ECB
:1004E0002C4800680126964030432A4E3060304642
:1004F0000068561C0127B740B843264E306016E00E
:10050000A1F10800C1B28806020E2248001D006851
:100510000126964030431F4E361D3060304600683D
:10052000561C0127B740B8431A4E361D30602BE0E9
:10053000082910DA8806020E174806680120904044
:100540000643154806600068561C0127B740B843AB
:10055000114E306015E0A1F10800C1B28806020E0C
:100560000D4840680126964030430B4E706030467F
:100570004068561C0127B740B84300E002E0064E31
:10058000706001E0002500BF00BF2846F0BD0000FC
:1005900000080140000C01400010014030B5034646
:1005A00001240846CD1701EB15752D11A1EB05159A
:1005B000E9B2BAB923B1012B07D0022B0FD109E060
:1005C00001208840164D28600BE001208840154D21
:1005D000286006E001208840134D686101E0002496
:1005E00000BF1BE0012A19D123B1012B08D0022B37
:1005F00011D10BE001208840094D2D1F28600CE02F
:1006000001208840074D2D1F286006E0012088400A
:10061000054D286101E0002400BF00BF204630BD29
:1006200014080140140C01400010014030B503468D
:10063000012401F00F011046D51702EB15752D119D
:10064000A2EB0515EAB223B1012B11D0022B2BD15D
:100650001CE0184800680F259540A843154D2860F8
:100660002846006801FA02F52843124D28601DE073
:10067000114805680F20904085430F4805600068C9
:1006800001FA02F528430C4D28600FE00B48C568BD
:100690000F20904085430948C560C06801FA02F503
:1006A0002843064DE86001E0002400BF00BF20465B
:1006B00030BD00000C0801400C0C0140001001404E
:1006C00010B50246012022B1012A0AD0022A18D10F
:1006D0000FE00E4B1B6801248C4063400B4C2360E1
:1006E00011E00B4B1C6801238B405C40084B1C60E5
:1006F00009E0084BDB6801248C406340054CE36053
:1007000001E0002000BF00BF10BD00000C08014048
:100710000C0C01400010014010B51D480068C0F3EA
:10072000400058B11B48006840B11A49086880472A
:100730001748406840F002001549486014480068B6
:10074000C0F3800058B11448006840B112490868ED
:1007500080470F48406840F004000D4948600C484D
:100760000068C0F3C00058B10C48006840B10B49A4
:10077000086880470648406840F00800044948601F
:100780000348406840F001000149486010BD000086
:1007900000000240EC01002024020020080200209A
:1007A00010B5042423480068611CC84000F0010013
:1007B00068B12148406850B11F49486880471D48CA
:1007C0004068611C01228A4010431A494860194858
:1007D0000068A11CC84000F0010068B117484068DB
:1007E00050B116494868804712484068A11C012250
:1007F0008A4010430F4948600E480068E11CC84019
:1008000000F0010068B10E48406850B10C494868DA
:10081000804708484068E11C01228A40104305498E
:100820004860044840680121A140084301494860EC
:1008300010BD000000000240EC0100202402002056
:100840000802002010B5082423480068611CC84035
:1008500000F0010068B12148806850B11F498868E4
:1008600080471D484068611C01228A4010431A4994
:10087000486019480068A11CC84000F0010068B138
:100880001748806850B11649886880471248406808
:10089000A11C01228A4010430F4948600E4800689D
:1008A000E11CC84000F0010068B10E48806850B1FA
:1008B0000C498868804708484068E11C01228A404A
:1008C000104305494860044840680121A14008439D
:1008D0000149486010BD000000000240EC0100200A
:1008E000240200200802002010B50C2423480068D0
:1008F000611CC84000F0010068B12148C06850B1D7
:100900001F49C86880471D484068611C01228A4011
:1009100010431A49486019480068A11CC84000F0FB
:10092000010068B11748C06850B11649C8688047CF
:1009300012484068A11C01228A4010430F494860B8
:100940000E480068E11CC84000F0010068B10E4884
:10095000C06850B10C49C868804708484068E11C2D
:1009600001228A401043054948600448406801213B
:10097000A14008430149486010BD0000000002404A
:10098000EC010020240200200802002010B51024F1
:1009900023480068611CC84000F0010068B121488C
:1009A000006950B11F49086980471D484068611CB3
:1009B00001228A4010431A49486019480068A11C66
:1009C000C84000F0010068B11748006950B11649ED
:1009D0000869804712484068A11C01228A401043E0
:1009E0000F4948600E480068E11CC84000F0010053
:1009F00068B10E48006950B10C4908698047084841
:100A00004068E11C01228A401043054948600448BF
:100A100040680121A14008430149486010BD000021
:100A200000000240EC010020240200200802002007
:100A300010B5142423480068611CC84000F0010070
:100A400068B12148406950B11F49486980471D4835
:100A50004068611C01228A4010431A4948601948C5
:100A60000068A11CC84000F0010068B11748406947
:100A700050B116494869804712484068A11C0122BC
:100A80008A4010430F4948600E480068E11CC84086
:100A900000F0010068B10E48406950B10C49486946
:100AA000804708484068E11C01228A4010430549FC
:100AB0004860044840680121A1400843014948605A
:100AC00010BD000000000240EC01002024020020C4
:100AD0000802002010B5182423480068611CC84093
:100AE00000F0010068B12148806950B11F49886950
:100AF00080471D484068611C01228A4010431A4902
:100B0000486019480068A11CC84000F0010068B1A5
:100B10001748806950B11649886980471248406873
:100B2000A11C01228A4010430F4948600E4800680A
:100B3000E11CC84000F0010068B10E48806950B166
:100B40000C498869804708484068E11C01228A40B6
:100B5000104305494860044840680121A14008430A
:100B60000149486010BD000000000240EC01002077
:100B7000240200200802002010B5014601200729A8
:100B80000EDA01EB810292000832064BD25842F095
:100B9000010301EB810292000832024C135100E084
:100BA000002010BD0000024030B50246012011783F
:100BB000002A78D0072977DA01EB81039B001033F4
:100BC0009A4DD4685C5101EB81039B001433146986
:100BD0005C51148901EB81039B000C335C5101EBE8
:100BE00081039B0008332C461B59947804F00304BE
:100BF00043EA043401EB81039B0008335C5101EBB1
:100C000081039B0008332C461B59147904F003041C
:100C100043EA842401EB81039B0008335C5101EB20
:100C200081039B0008332C461B59D47804F003043D
:100C300043EA042401EB81039B0008335C51D37920
:100C4000012B0DD101EB81039B0008332C461B596E
:100C500043F0100401EB81039B0008335C5110E06A
:100C6000D379012B0DD101EB81039B0008336F4C2D
:100C70001B5923F0100401EB81039B0008336B4DDB
:100C80005C515378012B10D101EB81039B00083399
:100C9000664C1B5943F0200401EB81039B00083391
:100CA000624D5C5112E0BFE0BFE05378022B0DD1E2
:100CB00001EB81039B0008335C4C1B5943F48044D7
:100CC00001EB81039B000833584D5C51937973B954
:100CD00001EB81039B000833544C1B5943F0800403
:100CE00001EB81039B000833504D5C5110E0937978
:100CF000012B0DD101EB81039B0008334B4C1B5999
:100D000023F0800401EB81039B000833474D5C51C5
:100D1000537973B901EB81039B000833434C1B5992
:100D200043F0400401EB81039B0008333F4D5C51CD
:100D300010E05379012B0DD101EB81039B000833A7
:100D40003A4C1B5923F0400401EB81039B0008330C
:100D5000364D5C51536993B101EB81039B0008331D
:100D6000324C1B5943F0020401EB81039B00083312
:100D70002E4D5C512E4C536944F821300DE001EBAF
:100D800081039B000833294C1B5923F0020401EB1B
:100D900081039B000833254D5C51D36993B101EB6E
:100DA00081039B000833214C1B5943F0080401EBDD
:100DB00081039B0008331D4D5C511E4CD36944F8E0
:100DC00021300DE001EB81039B000833174C1B59C8
:100DD00023F0080401EB81039B000833134D5C51A1
:100DE000936993B101EB81039B0008330F4C1B59AE
:100DF00043F0040401EB81039B0008330B4D5C516D
:100E00000D4C936944F821300FE001EB81039B0006
:100E10000833064C1B5923F0040401EB81039B00AB
:100E20000833024D5C5100E0002030BD000002405C
:100E3000EC010020080200202402002070B50146C9
:100E400001200023002207291CDA00E0521C0E4C6E
:100E50002468012505EB8105EC4004F0010414B978
:100E60000A4CA242F2D3094CA24201D102200AE06C
:100E7000054C6468012505EB8106B5402C43024D05
:100E80006C6000E0002070BD000002408096980079
:100E900010B50648006840B1044908688047044816
:100EA000006840F001000249086010BD4C010020BC
:100EB0001404014010B52A480068C0F3802040B1F6
:100EC0002849886A80472648006840F480602449A1
:100ED000086023480068C0F3C02040B12149C86AB7
:100EE00080471F48006840F400601D4908601C48A6
:100EF0000068C0F3003040B11A49086B80471848B9
:100F0000006840F480501649086015480068C0F336
:100F1000403040B11349486B80471148006840F4A5
:100F200000500F4908600E480068C0F3803040B19F
:100F30000C49886B80470A48006840F480400849A3
:100F4000086007480068C0F3C03040B10549C86B6D
:100F500080470348006840F400400149086010BD24
:100F6000140401404C01002010B50648406840B10F
:100F70000449486880470448006840F0020002497C
:100F8000086010BD4C0100201404014010B5064853
:100F9000806840B10449886880470448006840F090
:100FA00004000249086010BD4C01002014040140F7
:100FB00010B50648C06840B10449C8688047044875
:100FC000006840F008000249086010BD4C01002094
:100FD0001404014010B50648006940B1044908698D
:100FE00080470448006840F010000249086010BDC6
:100FF0004C0100201404014010B523480068C0F3E0
:10100000401040B12149486980471F48006840F0BE
:1010100020001D4908601C480068C0F3801040B1E2
:101020001A49886980471848006840F0400016490E
:10103000086015480068C0F3C01040B11349C86982
:1010400080471148006840F080000F4908600E4852
:101050000068C0F3002040B10C49086A80470A4884
:10106000006840F480700849086007480068C0F3D1
:10107000402040B10549486A80470348006840F471
:1010800000700149086010BD140401404C010020AB
:1010900010B5012000F04EF8014800F0D7F910BD5E
:1010A0008038010010B5012214211046FFF74AF9DB
:1010B000012215211046FFF745F90122162110469D
:1010C000FFF740F9194800F0C1F90122102110463C
:1010D000FFF738F9012211211046FFF733F90122F9
:1010E00012211046FFF72EF9012213211046FFF7B7
:1010F00029F9022000F01EF84FF4FA5000F0A6F98A
:10110000282000F017F8094800F0A0F90C2000F0A2
:1011100011F8074800F09AF9FFF7BAFF062000F02F
:1011200009F84FF4FA5000F091F910BD801A06004A
:1011300000350C0010B50446002214210120FFF7F1
:101140002DFA002215210120FFF728FA2111102283
:101150000120FFF76BFA00F02BF810222146012046
:10116000FFF764FA00F024F84FF4FA5000F06EF93B
:1011700010BD10B50446012214211046FFF70EFAE7
:10118000002215210120FFF709FA21111022012068
:10119000FFF74CFA00F00CF8102221460120FFF76F
:1011A00045FA00F005F84FF4FA5000F04FF910BD81
:1011B00010B5012216211046FFF7F0F9064800F09D
:1011C00045F9002216210120FFF7E8F94FF4FA5003
:1011D00000F03CF910BD000000350C0070B504466D
:1011E00001251CB93020FFF7C4FF1EE00BE00A20E8
:1011F000B4FBF0F100FB114005EB850100EB41056C
:101200000A20B4FBF0F4002CF1D10CE00A20B5FB6D
:10121000F0F100FB115000F130063046FFF7A9FF56
:101220000A20B5FBF0F5012DF0D170BD10B50146D7
:1012300001221F2909DC3248006801238B40184332
:101240004FF0E023C3F8000158E0202913DB3F29C9
:1012500011DC0846CB1701EBD3635B11A1EB431400
:101260000123A340264C241D246823434FF0E0248F
:10127000C4F8043142E0402913DB5F2911DC084641
:10128000CB1701EBD3635B11A1EB43140123A34004
:101290001B4C0834246823434FF0E024C4F8083181
:1012A0002CE0602913DB7F2911DC0846CB1701EB0A
:1012B000D3635B11A1EB43140123A340104C0C3406
:1012C000246823434FF0E024C4F80C3116E0802951
:1012D00013DB8A2911DC0846CB1701EBD3635B11C2
:1012E000A1EB43140123A340054C1034246823438D
:1012F0004FF0E024C4F8103100E00022104610BD89
:1013000000E100E010B50648006C40B10449086CEB
:1013100080470448006840F480300249086010BDEE
:101320004C0100201404014001460748406820F4A5
:101330004040054A50601046406801F0030240EA10
:101340008230014A5060704700100240014601207F
:10135000202907DA114AD26901238B401A430F4B27
:10136000DA611AE040290ADAA1F12002D1B20B4A6F
:10137000926901238B401A43084B9A610DE0602962
:101380000ADAA1F14002D1B2044A526901238B402A
:101390001A43024B5A6100E00020704700100240DF
:1013A00010B50648406C40B10449486C8047044879
:1013B000006840F400300249086010BD4C01002074
:1013C0001404014010B505480068804704480068CF
:1013D00020F002000249086010BD00000C0100204E
:1013E0000428004010B51348C06813490968134A1F
:1013F000127821F8120011480078401C0F4908703B
:10140000084600780E490978884209D109484068A1
:1014100020F08000074948600A480068804707E0DC
:10142000094800680549097830F811000149C86089
:1014300010BD0000003001402801002021010020E3
:10144000200100202C010020240100200146012061
:10145000144A1278012A22D10022124B1A704FF03E
:10146000E0239A611A465161126942F001021A6141
:1014700000BF4FF0E0221269C2F30042002AF8D008
:101480004FF0E022126922F001024FF0E0231A61CE
:1014900000229A615A610122024B1A7000E0032077
:1014A00070470000000100204FF0E020006920F0AC
:1014B00002004FF0E02108610846006920F00100B9
:1014C000086100208861486170474FF0E0200069A2
:1014D00040F004004FF0E0210861704710B5074864
:1014E000006850B10648007808B9FFF7DDFF0348EF
:1014F0000068804701200349087010BDFC000020EF
:1015000001010020000100207047000010B51C48B8
:101510000068C0F3400040B11A49C86880471848C5
:10152000006820F002001649086015480068C0F302
:10153000800040B11349086980471148006820F0D5
:1015400004000F4908600E480068C0F3C00040B1B5
:101550000C49486980470A48006820F0080008499B
:10156000086007480068C0F3001040B10549886969
:1015700080470348006820F010000149086010BD52
:10158000102C01409C01002010B505494868804797
:101590000448006820F001000249086010BD000006
:1015A0009C010020102C014010B54FF080400069D4
:1015B00000F0010050B12849C86980474FF08040D1
:1015C000006920F001004FF0804108614FF0804039
:1015D0000069C0F3400050B11F49086A80474FF0CE
:1015E0008040006920F002004FF0804108614FF018
:1015F00080400069C0F3800050B11749486A8047B5
:101600004FF08040006920F004004FF080410861F5
:101610004FF080400069C0F3C00050B10E49886AA5
:1016200080474FF08040006920F008004FF0804173
:1016300008614FF080400069C0F3001050B10649C6
:10164000C86A80474FF08040006920F010004FF0DA
:101650008041086110BD00009C01002010B52348A6
:10166000006800F0010040B12149086B80471F4825
:10167000006820F001001D4908601C480068C0F3A4
:10168000400040B11A49486B80471848006820F074
:1016900002001649086015480068C0F3800040B198
:1016A0001349886B80471148006820F004000F49F7
:1016B00008600E480068C0F3C00040B10C49886B58
:1016C00080470A48006820F0080008490860074879
:1016D0000068C0F3001040B10549086C804703481A
:1016E000006820F010000149086010BD100400409F
:1016F0009C01002010B530480068C0F3401048B38A
:101700002E48006830B32C48001D00682B4909683A
:101710002B4A127821F8120029480078401C2849E9
:1017200008700846007827490978884212D10020BD
:101730002349087020480C30006820F004001E493E
:101740000C3108600846006820F0200008601E4840
:101750000068804718480068C0F3801000B31B4839
:101760000068E8B116480078401C15490870084622
:10177000007814490978884213D10F480C3000686A
:1017800020F008000C490C3108600846006820F081
:101790004000086000200A4908700B480068804734
:1017A00008E00A4800680649097830F81100024943
:1017B000091D086010BD00000038014038010020FC
:1017C0003C0100203D0100203001002034010020B8
:1017D00010B530480068C0F3401048B32E48006888
:1017E00030B32C48001D00682B4909682B4A127839
:1017F00021F8120029480078401C28490870084642
:10180000007827490978884212D1002023490870BE
:1018100020480C30006820F004001E490C3108609C
:101820000846006820F0200008601E4800688047D5
:1018300018480068C0F3801000B31B480068E8B186
:1018400016480078401C154908700846007814496D
:101850000978884213D10F480C30006820F0080046
:101860000C490C3108600846006820F04000086010
:1018700000200A4908700B480068804708E00A48C1
:1018800000680649097830F811000249091D08600E
:1018900010BD000000440040380100203C01002041
:1018A0003D010020300100203401002002460120CB
:1018B00012B1012A06D102E0044B0B6004E0044B94
:1018C0000B6001E0002000BF00BF704700380140FE
:1018D0000044004038B50446012500200090002C4B
:1018E00054D020786946FFF7E1FFA078012806D19F
:1018F0000098C06840F480500099C86005E00098E6
:10190000C06820F480500099C8600098006920F4F5
:1019100070400099086100980069E17801F00301C6
:1019200040EA013000990861207960B90098C068E8
:1019300040F480600099C8600098C06820F400708E
:101940000099C86015E0207901280CD10098C06882
:1019500040F480600099C8600098C06840F400704E
:101960000099C86005E00098C06820F48060009984
:10197000C860207AE18840EA0110009988600098E8
:10198000C06840F400500099C86000E00025284677
:1019900038BD0000F8B504460D4601260020009031
:1019A000002769462846FFF781FF00980068C0F3CA
:1019B000001090B92046FFF7F7F80948006840F09A
:1019C0004000074908600098C06840F00400009992
:1019D000C8602078FFF7D0F800E003263046F8BD55
:1019E000144400402DE9F84305460F461646984634
:1019F0004FF0010900200090002469463846FFF7A7
:101A000055FF00980068C0F3001008BB2846FFF798
:101A1000CBF83EB100BF03E0305D29690855641C76
:101A20004445F9D30098406940F08000009948612E
:101A30000098006820F04000009908602878FFF7BF
:101A40009BF80098C06840F008000099C86001E069
:101A50004FF003094846BDE8F8830000F8B5054695
:101A6000012600200090002469462846FFF71EFF4B
:101A7000022D0EDA00E0641C00980068C0F38010AC
:101A800010B905488442F6D30348844202D10226A5
:101A900000E000263046F8BD8096980010B5064854
:101AA000806C40B10449886C80470448006840F469
:101AB00080200249086010BD4C0100201404014040
:101AC00010B50548006880470448006820F0010010
:101AD0000249086010BD000004010020082C0040ED
:101AE000012211460020FEF72DFCFFF7EEFCFFF768
:101AF000D9FA2620FFF79AFB1020FFF797FB112059
:101B0000FFF794FB0020FFF70FFC1120FFF71EFCEE
:101B10000A48FFF7DFFE01210948FFF73BFF0849AC
:101B20000878FFF78BF96220FFF723FB00231A46A2
:101B300001210448FFF756FF00BFFEE79A0000208E
:101B4000DC000020BC00002010B501210020FEF7C1
:101B5000B7FD104949680888FFF740FB2020FFF7D0
:101B600008FB0C4949684888FFF738FB2020FFF73D
:101B700000FB084949688888FFF730FB2020FFF701
:101B8000F8FA04494968C888FFF728FB2020FFF7C6
:101B9000F0FA10BD6400002010B50120FFF75EFFD1
:101BA0000348006820F008000149086010BD0000EB
:101BB0000C440040D41B000800000020400100003D
:101BC00028010008681C0008400100206007000090
:101BD00084010008650201010F3603030204084B6B
:101BE0000101081A0201412C15111F1619023205B4
:101BF000141001011412010D3A051CB2033C02033A
:101C0000041461120465B80BD007224A1B2050044B
:101C1000320413491B12085E01D007881336590C91
:101C200029184B0201081963196B190611120232A7
:101C3000342F4E6F7572616E84214B4001481A99A2
:101C4000282A061219992A067012441B40701C2972
:101C500018814A052011A92001102954A908091248
:081C60001C011A120100000032
:04000005080001C925
:00000001FF
